{
  "contractName": "Bank",
  "abi": [
    {
      "constant": false,
      "inputs": [
        {
          "name": "userId",
          "type": "string"
        },
        {
          "name": "initialBalance",
          "type": "uint256"
        }
      ],
      "name": "addUser",
      "outputs": [
        {
          "name": "",
          "type": "string"
        }
      ],
      "payable": false,
      "stateMutability": "nonpayable",
      "type": "function"
    },
    {
      "constant": false,
      "inputs": [
        {
          "name": "userId",
          "type": "string"
        },
        {
          "name": "amount",
          "type": "uint256"
        }
      ],
      "name": "deposit",
      "outputs": [
        {
          "name": "",
          "type": "uint256"
        }
      ],
      "payable": false,
      "stateMutability": "nonpayable",
      "type": "function"
    },
    {
      "constant": false,
      "inputs": [
        {
          "name": "userId",
          "type": "string"
        },
        {
          "name": "amount",
          "type": "uint256"
        }
      ],
      "name": "withdraw",
      "outputs": [
        {
          "name": "",
          "type": "uint256"
        }
      ],
      "payable": false,
      "stateMutability": "nonpayable",
      "type": "function"
    },
    {
      "constant": true,
      "inputs": [
        {
          "name": "userId",
          "type": "string"
        }
      ],
      "name": "showBalance",
      "outputs": [
        {
          "name": "",
          "type": "uint256"
        }
      ],
      "payable": false,
      "stateMutability": "view",
      "type": "function"
    }
  ],
  "bytecode": "0x608060405234801561001057600080fd5b50610f63806100206000396000f300608060405260043610610062576000357c0100000000000000000000000000000000000000000000000000000000900463ffffffff1680631c5220c21461006757806330b39a62146101535780633bf8b0da146101da5780638e27d71914610257575b600080fd5b34801561007357600080fd5b506100d8600480360381019080803590602001908201803590602001908080601f0160208091040260200160405190810160405280939291908181526020018383808284378201915050505050509192919290803590602001909291905050506102de565b6040518080602001828103825283818151815260200191508051906020019080838360005b838110156101185780820151818401526020810190506100fd565b50505050905090810190601f1680156101455780820380516001836020036101000a031916815260200191505b509250505060405180910390f35b34801561015f57600080fd5b506101c4600480360381019080803590602001908201803590602001908080601f0160208091040260200160405190810160405280939291908181526020018383808284378201915050505050509192919290803590602001909291905050506105fd565b6040518082815260200191505060405180910390f35b3480156101e657600080fd5b50610241600480360381019080803590602001908201803590602001908080601f0160208091040260200160405190810160405280939291908181526020018383808284378201915050505050509192919290505050610a16565b6040518082815260200191505060405180910390f35b34801561026357600080fd5b506102c8600480360381019080803590602001908201803590602001908080601f016020809104026020016040519081016040528093929190818152602001838380828437820191505050505050919291929080359060200190929190505050610c08565b6040518082815260200191505060405180910390f35b6060600015156102ed84610f15565b1515141515610364576040517f08c379a000000000000000000000000000000000000000000000000000000000815260040180806020018281038252601d8152602001807f4120757365722069642068617320746f20626520737570706c6965642e00000081525060200191505060405180910390fd5b600015156000846040518082805190602001908083835b6020831015156103a0578051825260208201915060208101905060208303925061037b565b6001836020036101000a038019825116818451168082178552505050505050905001915050908152602001604051809103902060010160009054906101000a900460ff16151514151561045b576040517f08c379a00000000000000000000000000000000000000000000000000000000081526004018080602001828103825260208152602001807f54686520557365722069642068617320616c726561647920657873697465642e81525060200191505060405180910390fd5b600082101515156104fa576040517f08c379a00000000000000000000000000000000000000000000000000000000081526004018080602001828103825260368152602001807f54686520696e697469616c2062616c616e63652073686f756c6420626520657181526020017f75616c206f722067726561746572207468616e20302e0000000000000000000081525060400191505060405180910390fd5b816000846040518082805190602001908083835b602083101515610533578051825260208201915060208101905060208303925061050e565b6001836020036101000a03801982511681845116808217855250505050505090500191505090815260200160405180910390206000018190555060016000846040518082805190602001908083835b6020831015156105a75780518252602082019150602081019050602083039250610582565b6001836020036101000a038019825116818451168082178552505050505050905001915050908152602001604051809103902060010160006101000a81548160ff02191690831515021790555082905092915050565b600080151561060b84610f15565b1515141515610682576040517f08c379a000000000000000000000000000000000000000000000000000000000815260040180806020018281038252601d8152602001807f4120757365722069642068617320746f20626520737570706c6965642e00000081525060200191505060405180910390fd5b600115156000846040518082805190602001908083835b6020831015156106be5780518252602082019150602081019050602083039250610699565b6001836020036101000a038019825116818451168082178552505050505050905001915050908152602001604051809103902060010160009054906101000a900460ff161515141515610779576040517f08c379a00000000000000000000000000000000000000000000000000000000081526004018080602001828103825260168152602001807f5468652055736572206973206e6f742065787369742e0000000000000000000081525060200191505060405180910390fd5b600082111515610817576040517f08c379a000000000000000000000000000000000000000000000000000000000815260040180806020018281038252602d8152602001807f54686520776974686472617720616d6f756e742073686f756c6420626520677281526020017f6561746572207468616e20302e0000000000000000000000000000000000000081525060400191505060405180910390fd5b816000846040518082805190602001908083835b602083101515610850578051825260208201915060208101905060208303925061082b565b6001836020036101000a03801982511681845116808217855250505050505090500191505090815260200160405180910390206000015410151515610923576040517f08c379a00000000000000000000000000000000000000000000000000000000081526004018080602001828103825260268152602001807f546865207573657220646f6573206e6f74206861766520656e6f75676820626181526020017f6c616e63652e000000000000000000000000000000000000000000000000000081525060400191505060405180910390fd5b816000846040518082805190602001908083835b60208310151561095c5780518252602082019150602081019050602083039250610937565b6001836020036101000a0380198251168184511680821785525050505050509050019150509081526020016040518091039020600001600082825403925050819055506000836040518082805190602001908083835b6020831015156109d757805182526020820191506020810190506020830392506109b2565b6001836020036101000a038019825116818451168082178552505050505050905001915050908152602001604051809103902060000154905092915050565b6000801515610a2483610f15565b1515141515610a9b576040517f08c379a000000000000000000000000000000000000000000000000000000000815260040180806020018281038252601d8152602001807f4120757365722069642068617320746f20626520737570706c6965642e00000081525060200191505060405180910390fd5b600115156000836040518082805190602001908083835b602083101515610ad75780518252602082019150602081019050602083039250610ab2565b6001836020036101000a038019825116818451168082178552505050505050905001915050908152602001604051809103902060010160009054906101000a900460ff161515141515610b92576040517f08c379a00000000000000000000000000000000000000000000000000000000081526004018080602001828103825260168152602001807f5468652055736572206973206e6f742065787369742e0000000000000000000081525060200191505060405180910390fd5b6000826040518082805190602001908083835b602083101515610bca5780518252602082019150602081019050602083039250610ba5565b6001836020036101000a0380198251168184511680821785525050505050509050019150509081526020016040518091039020600001549050919050565b6000801515610c1684610f15565b1515141515610c8d576040517f08c379a000000000000000000000000000000000000000000000000000000000815260040180806020018281038252601d8152602001807f4120757365722069642068617320746f20626520737570706c6965642e00000081525060200191505060405180910390fd5b600115156000846040518082805190602001908083835b602083101515610cc95780518252602082019150602081019050602083039250610ca4565b6001836020036101000a038019825116818451168082178552505050505050905001915050908152602001604051809103902060010160009054906101000a900460ff161515141515610d84576040517f08c379a00000000000000000000000000000000000000000000000000000000081526004018080602001828103825260168152602001807f5468652055736572206973206e6f742065787369742e0000000000000000000081525060200191505060405180910390fd5b600082111515610e22576040517f08c379a000000000000000000000000000000000000000000000000000000000815260040180806020018281038252602c8152602001807f546865206465706f73697420616d6f756e742073686f756c642062652067726581526020017f61746572207468616e20302e000000000000000000000000000000000000000081525060400191505060405180910390fd5b816000846040518082805190602001908083835b602083101515610e5b5780518252602082019150602081019050602083039250610e36565b6001836020036101000a0380198251168184511680821785525050505050509050019150509081526020016040518091039020600001600082825401925050819055506000836040518082805190602001908083835b602083101515610ed65780518252602082019150602081019050602083039250610eb1565b6001836020036101000a038019825116818451168082178552505050505050905001915050908152602001604051809103902060000154905092915050565b600060608290506000815114610f2c576000610f2f565b60015b9150509190505600a165627a7a72305820811e7c083f690003340bcd6558bc46a458f719e0d2c9ffcd0aca6c8cdf0e79900029",
  "source": "pragma solidity ^0.4.24;\r\n\r\ncontract Bank {\r\n  struct user {\r\n    uint balance;\r\n    bool isExsited;\r\n  }\r\n\r\n  mapping(string => user) users; // Mapping user's id to a user structure.\r\n\r\n  function addUser(string userId, uint initialBalance) public returns (string) {\r\n    require(isEmptyString(userId) == false, 'A user id has to be supplied.');\r\n    require(users[userId].isExsited == false, 'The User id has already exsited.');\r\n    require(initialBalance >= 0, 'The initial balance should be equal or greater than 0.');\r\n    \r\n    users[userId].balance = initialBalance;\r\n    users[userId].isExsited = true;\r\n    return userId;\r\n  }\r\n\r\n  function deposit(string userId, uint amount) public returns (uint) {\r\n    require(isEmptyString(userId) == false, 'A user id has to be supplied.');\r\n    require(users[userId].isExsited == true, 'The User is not exsit.');\r\n    require(amount > 0, 'The deposit amount should be greater than 0.');\r\n\r\n    users[userId].balance += amount;\r\n    return users[userId].balance;\r\n  }\r\n\r\n  function withdraw(string userId, uint amount) public returns (uint) {\r\n    require(isEmptyString(userId) == false, 'A user id has to be supplied.');\r\n    require(users[userId].isExsited == true, 'The User is not exsit.');\r\n    require(amount > 0, 'The withdraw amount should be greater than 0.');\r\n    require(users[userId].balance >= amount, 'The user does not have enough balance.');\r\n\r\n    users[userId].balance -= amount;\r\n    return users[userId].balance;\r\n  }\r\n\r\n  function showBalance(string userId) public view returns (uint) {\r\n    require(isEmptyString(userId) == false, 'A user id has to be supplied.');\r\n    require(users[userId].isExsited == true, 'The User is not exsit.');\r\n\r\n    return users[userId].balance;\r\n  }\r\n\r\n  /**\r\n   * Test wether a string is empty.\r\n   */\r\n  function isEmptyString(string str) private view returns (bool) {\r\n    bytes memory tempStr = bytes(str);\r\n    return tempStr.length == 0 ? true : false;\r\n  }\r\n}\r\n",
  "sourcePath": "c:\\Projects\\BankDAppBackend\\contracts\\Bank.sol",
  "compiler": {
    "name": "solc",
    "version": "0.4.24+commit.e67f0147.Emscripten.clang"
  },
  "schemaVersion": "2.0.1",
  "updatedAt": "2018-08-21T03:38:50.327Z"
}